:100000000C9430010C9458010C9458010C94580134
:100010000C9458010C9458010C9458010C945801FC
:100020000C9458010C9458010C94EE0D0C94750E20
:100030000C9458010C9458010C9458010C945801DC
:100040000C9458010C9458010C9458010C945801CC
:100050000C9458010C9458010C9458010C94C1074D
:100060000C9458010C94C7080C9415090C94580171
:100070000C9458010C9458010C9458010C9458019C
:100080000C9458010C9458010C9458010C9458018C
:100090000C9458010C9458010C9458010C9458017C
:1000A0000C9458010C9458010C9458010403090451
:1000B0002203410072006400750069006E006F0049
:1000C00020004C0065006F006E006100720064004B
:1000D0006F001803410072006400750069006E0033
:1000E0006F0020004C004C00430012010002000091
:1000F000004041233680000101020001120100028C
:10010000020000404123368000010102000100C1CD
:100110008081C1080B0002020201000904000001F5
:10012000020200000524001001052401010104243D
:10013000020605240600010705810310004009049A
:100140000100020A00000007050202400000070546
:10015000830240000005010902A1010901A10085F7
:100160000105091901290315002501950375018170
:10017000029501750581030501093009310938151A
:1001800081257F750895038106C0C005010906A178
:10019000018502050719E029E7150025017501957C
:1001A00008810295017508810395067508150025DB
:1001B000650507190029658100C0090402000103D3
:1001C00000000009210101000122650007058403E8
:1001D00040000100000000000000002A2B28000061
:1001E000000000000000000000000000000000000F
:1001F0000000002C9EB4A0A1A2A434A6A7A5AE36F0
:100200002D3738271E1F20212223242526B333B65D
:100210002EB7B89F8485868788898A8B8C8D8E8F30
:10022000909192939495969798999A9B9C9D2F3133
:1002300030A3AD350405060708090A0B0C0D0E0F97
:10024000101112131415161718191A1B1C1DAFB113
:10025000B0B50000F605830A2A0DE313E814EF0594
:1002600011241FBECFEFDAE0DEBFCDBF11E0A0E06A
:10027000B1E0EAE8FCE202C005900D92AE39B107A8
:10028000D9F713E0AEE9B1E001C01D92A430B10787
:10029000E1F712E0CEE5D2E004C02297FE010E9411
:1002A0003416C435D107C9F70E94A8070C94810100
:1002B0000C9400001F93FC0199278827BC01E89447
:1002C00011911032E9F3193010F01E30C8F31B32CF
:1002D00051F01D3249F4689406C00E94A801610FD4
:1002E000711D811D911D119110531A30B0F33EF410
:1002F00090958095709561957F4F8F4F9F4F1F917F
:100300000895F8940C943816FB01DC0102C00190AA
:100310000D9241505040D8F70895FC018191861705
:1003200021F08823D9F7992708953197CF010895AF
:10033000FB01DC018D91019080190110D9F3990B1B
:100340000895FB01DC0101900D920020E1F7089572
:10035000592F482F372F262F660F771F881F991F79
:10036000660F771F881F991F620F731F841F951FC9
:10037000660F771F881F991F08950F931F93CF93C0
:10038000DF938B01CB0160E070E00E94BE0FFC01A7
:10039000808180334CF0C80160E070E00E94BE0FA5
:1003A000FC0180818A334CF0C80160E070E00E945B
:1003B000BE0FFC0180818D32E1F4C1E0D0E011C0BC
:1003C000C801BE010E94BE0FFC01808180338CF009
:1003D000C801BE010E94BE0FFC0180818A334CF42B
:1003E0000EC0F80184819581C817D90748F381E0D0
:1003F00001C080E0DF91CF911F910F910895219668
:10040000F0CF4F925F926F927F928F929F92AF92B6
:10041000BF92CF92DF92EF92FF920F931F93DF93E1
:10042000CF93CDB7DEB7E1970FB6F894DEBF0FBE1E
:10043000CDBF4C016B01CB016CE20E9413103C015B
:10044000C6016CE30E9413107C01C6016EE30E949A
:1004500013105C01C60163E20E9413108C01CE01EF
:10046000019660E071E00E94E4102FEFE2162FEF9A
:10047000F20609F423C18FEFA8168FEFB80609F42E
:100480001DC1EFEF0F3F1E0721F00E151F050CF0E9
:1004900015C1EA14FB040CF011C1FFEF6F16FFEF5A
:1004A0007F0621F0A614B7040CF008C18E01085F86
:1004B0001F4F0894E11CF11CC801B601A70195016A
:1004C0000E941711C4010F96B8010E946A11C80159
:1004D0000E948C11A5014F5F5F4F2FEF62162FEF27
:1004E000720671F5F601848195814817590721F448
:1004F000F40116AA15AAB4C08E01015F1F4FC801EE
:10050000B6010E945E117E010894E11CF11CC70136
:10051000B8010E946A11C8010E948C11C401B70180
:100520000E94BD01882309F4C9C0C7010E94E40FDD
:10053000F40172A361A381E090E096AB85AB90C01B
:100540008E010A5E1F4FC801B60193010E94171168
:100550005E010894A11CB11CC501B8010E946A117A
:10056000C8010E948C11C401B5010E94BD018823FD
:1005700009F4A4C0C5010E94E40FF40172A361A3B1
:10058000A3014F5F5F4FC6016CE20E94F50F7C0133
:1005900033E2432E512C480C591CA30121E0622E5A
:1005A000712CC501BA2CA92E8E01035E1F4F29C0E4
:1005B000C801B60197010E9417118B2D9A2DB80121
:1005C0000E946A11C8010E948C11C4016B2D7A2D02
:1005D0000E94BD01882309F471C08B2D9A2D0E94C1
:1005E000E40FF201619371932F010894611C711C57
:1005F000A7014F5F5F4FC6016CE20E94F50FA70194
:100600007C014F5F5F4FFFEFEF16FFEFFF0681F6B4
:100610008E010C5D1F4FC801B6010E945E118B2D2B
:100620009A2DB8010E946A11C8010E948C11C40160
:100630006B2D7A2D0E94BD01882309F43FC08B2DBC
:100640009A2D0E94E40FF301EE0FFF1FE80DF91D34
:1006500072A361A30894611C711CF40176AA65AAB7
:10066000C60163E20E9413108F5F9F4F19F1C6010C
:1006700063E20E9413108C01C6016CE30E94131008
:100680009C018BE2E82EF12CEC0EFD1E0F5F1F4F3C
:10069000C701B601A8010E941711C7010E94E40F0B
:1006A000F401768F658FC7010E948C1181E0F401FF
:1006B000868702C0F401168601E001C000E0CE0189
:1006C00001960E948C11802FE1960FB6F894DEBF40
:1006D0000FBECDBFCF91DF911F910F91FF90EF9093
:1006E000DF90CF90BF90AF909F908F907F906F9052
:1006F0005F904F900895BF92CF92DF92EF92FF925A
:100700000F931F93DF93CF93CDB7DEB72E970FB61E
:10071000F894DEBF0FBECDBF6C01DC011796ED91E2
:10072000FC911897A081B18114962D913C91159759
:10073000CF01F9010995892B91F10C2DFD2C10C0E9
:10074000F601A781B085ED91FC9111970680F781A4
:10075000E02DCD010995682F802F9F2D0E949E10BE
:10076000D6011796ED91FC911897A081B18114964E
:100770002D913C911597CF01F9010995892B01F72E
:10078000802F9F2D6BE30E94131090939F01809305
:100790009E018F5F9F4F19F081E08093A0018091AF
:1007A000A001882311F4FF244CC0EC2CBD2C209117
:1007B0009E0130919F018E010F5F1F4FC801B6014E
:1007C00040E050E00E941711C601B8010E940102EA
:1007D000F82EC8010E948C11FF2019F0FF24F39419
:1007E00008C0F6018781908561E071E00E941D0CD0
:1007F000FF248E01085F1F4F40919E0150919F0181
:100800004F5F5F4FC8016E2D7B2D0E945E118E2DB4
:100810009B2DB8010E946A11C8010E948C118E2D77
:100820009B2D6BE30E94131090939F0180939E0178
:100830008F5F9F4F21F081E08093A00102C0109252
:10084000A0018F2D2E960FB6F894DEBF0FBECDBF40
:10085000CF91DF911F910F91FF90EF90DF90CF909C
:10086000BF900895EF92FF920F931F93CF93DF9362
:10087000EC018D85882369F08F81988563E20E9461
:10088000030B6F8D78A18F8198854AE050E00E941C
:10089000EB0B8F8198856CE30E94030BBE016A5EAF
:1008A0007F4F8F8198850E94300C8F8198856EE3F1
:1008B0000E94030B8FA998AD892B61F15BE2E52EB5
:1008C000F12CEC0EFD1E00E010E010C0F70161916C
:1008D00071917F01C9014AE050E00E94EB0B8F81CA
:1008E00098856CE20E94030B0F5F1F4F8FA998AD94
:1008F00001972F8138850817190744F3000F111F3E
:100900000C0F1D1FF80163A574A5C9014AE050E052
:100910000E94EB0B8F8198856BE30E94030BDF91A4
:10092000CF911F910F91FF90EF900895EF92FF925A
:100930000F931F93DF93CF93CDB7DEB709851A8549
:10094000EF84F8888B859C85F80190A3878F81E0E0
:100950008587C80146966D857E850E946A11F801DB
:10096000F0AEE7AACE014196DC01BB9620E030E074
:1009700006C08D919D91819391932F5F3F4F2E15CE
:100980003F05BCF3C8010E943204CF91DF911F9153
:100990000F91FF90EF900895EF92FF920F931F93A6
:1009A000DF93CF93CDB7DEB709851A85ED84FE843A
:1009B000F8011586C80146966B857C850E946A11F0
:1009C000F801F0AEE7AACE010F96DC01BB9620E05D
:1009D00030E006C08D919D91819391932F5F3F4FA1
:1009E0002E153F05BCF3C8010E943204CF91DF9160
:1009F0001F910F91FF90EF900895CF92DF92EF92A9
:100A0000FF920F931F93DF93CF93CDB7DEB7279756
:100A10000FB6F894DEBF0FBECDBF6C017B01CB01DA
:100A20006BE30E9413108F5F9F4F49F0D60117961A
:100A30008D919C911897B7010E94300C24C08E01B3
:100A40000F5F1F4FC801B7010E94811100D000D075
:100A500000D0EDB7FEB73196ADB7BEB71296DC92B7
:100A6000CE92119713830283158214820E94CC04C4
:100A7000EDB7FEB736960FB6F894FEBF0FBEEDBFCA
:100A8000C8010E948C1127960FB6F894DEBF0FBEE6
:100A9000CDBFCF91DF911F910F91FF90EF90DF902D
:100AA000CF900895CF93DF93EC0149855A856B85EC
:100AB0007C858F8198850E9450098F8198850E943E
:100AC000810A8823D1F3DF91CF9108956F927F92AD
:100AD0008F929F92AF92BF92CF92DF92EF92FF924E
:100AE0000F931F938C016B0139014A01E0E0EE2E58
:100AF000E1E0FE2EB7010E94E410D8011896DC92C6
:100B0000CE9217977FE0A72EB12CA00EB11EC50183
:100B1000B7010E94E41066E1C62ED12CC00ED11E92
:100B2000C601B7010E94E410C801B7010E94FE107F
:100B3000C501B7010E94FE10C601B7010E94FE1058
:100B4000F801168E158E10A2178E10AE17AAC801C6
:100B500081962AE0DC01822F1D928A95E9F7C8016F
:100B60008B96DC011D922A95E9F7F8011586168609
:100B7000D80119966D927D928D929C921C971F912F
:100B80000F91FF90EF90DF90CF90BF90AF909F902C
:100B90008F907F906F9008958130910571F46F5F11
:100BA0007F4FE1F481EA91E067E772E020E031EE07
:100BB00040E050E00E9466050895892B79F46F5F4C
:100BC0007F4F61F487EB91E00E948C1180EB91E004
:100BD0000E948C1181EA91E00E948C11089580E0BE
:100BE00090E06FEF7FEF0E94CC05089581E090E0E8
:100BF0006FEF7FEF0E94CC0508958F929F92AF9286
:100C0000BF92CF92DF92EF92FF920F931F93DF93E9
:100C1000CF93CDB7DEB7E1970FB6F894DEBF0FBE26
:100C2000CDBF81EA91E00E947B03882309F470C064
:100C300080EB91E06EE071E00E941810882359F17A
:100C400087E792E060EB71E00E94630C6091D6014F
:100C50007091D70187E792E04AE050E00E94FE0BD6
:100C600052ECE52E51E0F52E00E010E00CC0D7016B
:100C70006D917D917D0187E792E04AE050E00E940E
:100C8000FE0B0F5F1F4F8091D6019091D70108177F
:100C900019076CF332C080EB91E064E171E00E94CF
:100CA0001810882379F187E792E060EB71E00E94E9
:100CB000630C6091D6017091D70187E792E04AE01A
:100CC00050E00E94FE0B42ECE42E41E0F42E00E0E6
:100CD00010E00CC0F701619171917F0187E792E00C
:100CE0004AE050E00E94FE0B0F5F1F4F8091D6013B
:100CF0009091D701081719076CF387E792E00E94DB
:100D00000B0B06C087E792E06BE171E00E941D0CBF
:100D10008091DA018823A1F48AED91E00E9492117A
:100D2000892B71F00E9409086093E2017093E3013E
:100D30008093E4019093E5018AED91E00E949C117B
:100D40000E9409082091E2013091E3014091E40101
:100D50005091E501621B730B840B950B6536710591
:100D60008105910508F4DCC00E9409086093E20146
:100D70007093E3018093E4019093E5018E010F5F8E
:100D80001F4FC80161E371E00E94E41031EAE32ED5
:100D900031E0F32EC701B8010E94FD04C8010E9492
:100DA0008C118E01085F1F4FC8016EE071E00E9438
:100DB000E4108DB79EB70C970FB6F8949EBF0FBE88
:100DC0008DBFEDB7FEB73196ADB7BEB71296FC92A8
:100DD000EE9211971383028323E0C22ED12CD58289
:100DE000C48298E3892E912C978286828DE5A82E65
:100DF000B12CB186A0868CE293E0938782870E9413
:100E0000CC04EDB7FEB73C960FB6F894FEBF0FBE0C
:100E1000EDBFC8010E948C118E01015F1F4FC801F8
:100E200064E471E00E94E410C701B8010E94FD046F
:100E3000C8010E948C118E010A5E1F4FC8016EE02E
:100E400071E00E94E4108DB79EB70C970FB6F8942E
:100E50009EBF0FBE8DBFEDB7FEB73196ADB7BEB723
:100E60001296FC92EE921197D382C282158304836C
:100E700082E090E09783868391868086B386A286FF
:100E80000E949604EDB7FEB73C960FB6F894FEBFED
:100E90000FBEEDBFC8010E948C118E01035E1F4F73
:100EA000C80165E571E00E94E410C701B8010E9425
:100EB000FD04C8010E948C118E010C5D1F4FC801FA
:100EC0006EE071E00E94E410C701B8010E94FD04C9
:100ED000C8010E948C118E01055D1F4FC8016EE094
:100EE00071E00E94E41000D000D000D0EDB7FEB752
:100EF0003196ADB7BEB71296FC92EE92119713835E
:100F00000283158214820E94CC04EDB7FEB7369698
:100F10000FB6F894FEBF0FBEEDBFC8010E948C1142
:100F2000E1960FB6F894DEBF0FBECDBFCF91DF9133
:100F30001F910F91FF90EF90DF90CF90BF90AF90F7
:100F40009F908F90089581EA91E00E945205089544
:100F5000CF93DF930E94700861E070E080E090E042
:100F60000E94170881EA92E00E942B0D0E94A307BD
:100F7000C2E0D9E00E94FD052097E1F30E9402093A
:100F8000F9CF1F920F920FB60F9211242F933F9318
:100F90008F939F93AF93BF938091EA019091EB0160
:100FA000A091EC01B091ED013091EE010196A11DEF
:100FB000B11D232F2D5F2D3720F02D570196A11D38
:100FC000B11D2093EE018093EA019093EB01A09371
:100FD000EC01B093ED018091E6019091E701A091C1
:100FE000E801B091E9010196A11DB11D8093E601D0
:100FF0009093E701A093E801B093E901BF91AF910D
:101000009F918F913F912F910F900FBE0F901F9046
:1010100018958FB7F8942091EA013091EB01409137
:10102000EC015091ED018FBFB901CA0108959B01F8
:10103000AC017FB7F8948091E6019091E701A0910F
:10104000E801B091E90166B5A89B05C06F3F19F0B2
:101050000196A11DB11D7FBFBA2FA92F982F8827F8
:10106000860F911DA11DB11D62E0880F991FAA1F57
:10107000BB1F6A95D1F7BC012DC0FFB7F8948091D2
:10108000E6019091E701A091E801B091E901E6B590
:10109000A89B05C0EF3F19F00196A11DB11DFFBF30
:1010A000BA2FA92F982F88278E0F911DA11DB11D32
:1010B000E2E0880F991FAA1FBB1FEA95D1F7861B94
:1010C000970B885E9340C8F221503040404050401A
:1010D00068517C4F211531054105510571F6089580
:1010E000789484B5826084BD84B5816084BD85B503
:1010F000826085BD85B5816085BDEEE6F0E08081CA
:1011000081608083E1E8F0E01082808182608083EA
:10111000808181608083E0E8F0E08081816080836D
:10112000E1E9F0E08081826080838081816080835A
:10113000E0E9F0E0808181608083E1ECF0E0808193
:1011400084608083808182608083808181608083ED
:10115000E3ECF0E0808181608083E0ECF0E080816E
:1011600082608083E2ECF0E0808181608083EAE746
:10117000F0E08081846080838081826080838081D0
:1011800081608083808180688083089508951F92A4
:101190000F920FB60F9211242F933F934F938F937B
:1011A0009F93EF93FF938091C80082FD1DC04091F3
:1011B000CE0020912F02309130022F5F3F4F2F73CE
:1011C000307080913102909132022817390771F006
:1011D000E0912F02F0913002E151FE4F40833093B5
:1011E000300220932F0202C08091CE00FF91EF9138
:1011F0009F918F914F913F912F910F900FBE0F9024
:101200001F901895E0918302F0918402E05CFF4FFB
:101210008191919120813181821B930B8F7390700A
:10122000892B11F00E94C60808951F920F920FB6E5
:101230000F9211242F933F938F939F93EF93FF93DC
:101240002091730230917402809175029091760220
:101250002817390731F48091C9008F7D8093C90028
:1012600014C0E0917502F0917602ED5CFD4F208193
:10127000809175029091760201968F739070909391
:101280007602809375022093CE00FF91EF919F919B
:101290008F913F912F910F900FBE0F901F90189537
:1012A000AF92BF92DF92EF92FF920F931F93CF9373
:1012B000DF93EC017A018B01DD24403081EE580789
:1012C00080E0680780E0780711F0DD24D39491E096
:1012D000A92EB12CEC89FD89DD2069F0C50108A09B
:1012E00002C0880F991F0A94E2F7808360E079E0DA
:1012F0008DE390E005C0108260E874E88EE190E034
:10130000A80197010E9410162150304040405040E3
:10131000569547953795279580E12030380720F07E
:10132000DD2011F0DD24D6CFE889F9893083EA8900
:10133000FB89208319A2EE89FF89408121E030E0FA
:10134000C9010C8C02C0880F991F0A94E2F7482B40
:101350004083EE89FF894081C9010D8C02C0880F4E
:10136000991F0A94E2F7482B4083EE89FF89408158
:10137000C9010E8C02C0880F991F0A94E2F7482B0E
:101380004083EE89FF8980810F8C02C0220F331FBA
:101390000A94E2F7209528232083DF91CF911F91B3
:1013A0000F91FF90EF90DF90BF90AF900895DC0118
:1013B0001C96ED91FC911D97E05CFF4F21913191BE
:1013C00080819181281B390B2F733070C9010895DA
:1013D000DC011C96ED91FC911D97E05CFF4F208194
:1013E0003181E054F040DF01AE5BBF4F8D919C91A5
:1013F00011972817390719F42FEF3FEF07C08D9188
:101400009C91E80FF91F8081282F30E0C9010895D1
:10141000DC011C96ED91FC911D97E05CFF4F208153
:101420003181E054F040DF01AE5BBF4F8D919C9164
:1014300011972817390719F42FEF3FEF10C08D913E
:101440009C911197E80FF91F20818D919C91119724
:1014500001968F73907011969C938E9330E0C90122
:101460000895DC0191968C919197882339F05496D8
:10147000ED91FC915597808186FFF9CF91961C9252
:101480000895CF93DF93EC01EE85FF85E05CFF4F7D
:1014900020813181E054F0402F5F3F4F2F73307037
:1014A000DF01AE5BBF4F8D919C91119728173907D3
:1014B000D1F3E05CFF4F80819181E054F040E80F70
:1014C000F91F6083EE85FF85E05CFF4F3183208349
:1014D000EE89FF89208181E090E00F8C02C0880FA7
:1014E000991F0A94E2F7282B208381E089A3EC89D5
:1014F000FD8980818064808381E090E0DF91CF91DD
:10150000089581E0089510927A021092790288EE8F
:1015100093E0A0E0B0E080937B0290937C02A093E4
:101520007D02B0937E0281E791E0909378028093F0
:1015300077028FEE91E0909384028093830283E39D
:1015400092E090938602809385028DEC90E09093D8
:101550008802809387028CEC90E090938A028093BB
:10156000890288EC90E090938C0280938B0289EC46
:1015700090E090938E0280938D028AEC90E090939D
:10158000900280938F028EEC90E090939202809371
:10159000910284E08093930283E08093940287E039
:1015A0008093950285E08093960281E08093970274
:1015B0000895CF92DF92EF92FF920F931F93CF93F4
:1015C000DF937C016B018A01C0E0D0E00FC0D6013F
:1015D0006D916D01D701ED91FC910190F081E02DAD
:1015E000C7010995C80FD91F0150104001151105F9
:1015F00071F7CE01DF91CF911F910F91FF90EF9086
:10160000DF90CF900895DC01ED91FC910190F08185
:10161000E02D09950895EF92FF920F931F938C018F
:10162000DC01ED91FC910190F081E02D6DE00995D8
:101630007C01D801ED91FC910190F081E02DC80171
:101640006AE009959C012E0D3F1DC9011F910F9164
:10165000FF90EF900895CF93DF93EC016115710532
:1016600019F420E030E00FC0DB010D900020E9F715
:101670001197A61BB70BE881F9810280F381E02D59
:10168000AD0109959C01C901DF91CF9108954F9259
:101690005F927F928F929F92AF92BF92CF92DF9292
:1016A000EF92FF920F931F93DF93CF93CDB7DEB7E7
:1016B000A1970FB6F894DEBF0FBECDBF2C01742EDC
:1016C000CB01223008F42AE019A231E2C32ED12C3A
:1016D000CC0EDD1E822E9924AA24BB24672D752FE3
:1016E000A50194010E94101679018A01C801B70171
:1016F000A50194010E94F115472D461B0894C108CD
:10170000D1084A3014F4405D01C0495CF6014083C1
:10171000E114F1040105110521F07E2C5F2DC801B3
:10172000DDCFC201B6010E942B0BA1960FB6F89433
:10173000DEBF0FBECDBFCF91DF911F910F91FF9004
:10174000EF90DF90CF90BF90AF909F908F907F9061
:101750005F904F900895CF92DF92EF92FF920F9398
:101760001F93CF93DF93EC016A017B0121153105B3
:1017700041F4E881F9810190F081E02D642F099511
:101780001FC02A303105D1F477FF17C0E881F981F5
:101790000190F081E02D6DE209958C0144275527D9
:1017A000BA014C195D096E097F09CE012AE00E9439
:1017B000470B9801280F391F04C02AE00E94470BED
:1017C0009C01C901DF91CF911F910F91FF90EF9084
:1017D000DF90CF900895EF92FF920F931F937B01BC
:1017E0009A010027F7FC0095102FB801A7010E946D
:1017F000AB0B1F910F91FF90EF900895CF92DF9266
:10180000EF92FF920F931F936C017B019A010027C7
:10181000F7FC0095102FB801A7010E94AB0B8C01BB
:10182000C6010E940B0B080F191FC8011F910F91D1
:10183000FF90EF90DF90CF900895EF92FF920F937B
:101840001F937C010E942B0B8C01C7010E940B0B84
:10185000080F191FC8011F910F91FF90EF90089575
:10186000AF92BF92CF92DF92EF92FF920F931F93AE
:10187000CF93DF935C016B01EE24FF24C0E0D0E046
:1018800010C0D501ED91FC9100811181C601BE010E
:101890000E94D30F682FC501F8010995E80EF91EC3
:1018A0002196F60184819581C817D90750F3C701A5
:1018B000DF91CF911F910F91FF90EF90DF90CF902C
:1018C000BF90AF900895EF92FF920F931F937C010A
:1018D0000E94300C8C01C7010E940B0B9C01200F51
:1018E000311FC9011F910F91FF90EF900895282F8C
:1018F00080919B028823C1F057FF1AC015C0289819
:1019000090939A028091F1008193E217F307B9F75F
:101910004115510539F08091F200882319F48BE6C6
:101920008093E800AFBF02C04FEF5FEFCA01089598
:10193000AFB7F89427702093E9008091F200282F28
:1019400030E0241735070CF4A901FB019B01240F9B
:10195000311D94E6DACFDF93CF930F92CDB7DEB788
:10196000BE016F5F7F4F41E050E00E94770C01970E
:1019700019F02FEF3FEF03C08981282F30E0C90114
:101980000F90CF91DF910895FF920F931F93F82E40
:10199000142F052F40919E0250919F02212F302F2E
:1019A000C901DC01FB016EEF29C0F7FE02C0949172
:1019B00001C0908120919C0230919D02241735072F
:1019C000ACF48091E8008570E1F38091E80082FF3B
:1019D00003C02FEF3FEF17C09093F100C9010196AC
:1019E0008F739070892B11F46093E8002F5F3F4F45
:1019F00030939D0220939C02119731961097A9F67F
:101A0000812F902F9C01C9011F910F91FF90089584
:101A10009C018091E80082FFFCCFF901260F311D67
:101A200003C08091F1008193E217F307D1F7289862
:101A300084E680939A028BEF8093E800CB010895AF
:101A40008093E9008091F200882319F08AE3809363
:101A5000E8000895089510929B0281E08093D700DA
:101A600080EA8093D80082E189BD09B400FEFDCFF1
:101A700061E070E080E090E00E94170880E98093C8
:101A8000D8008CE08093E2001092E000559A209AF2
:101A900008955F926F927F928F929F92AF92BF92C2
:101AA000CF92DF92EF92FF920F931F93CF93DF932A
:101AB000E82E842E752E80919B02882371F18B0174
:101AC000242F352FC901EC017AEFF72E67E0962E0F
:101AD0009E2050E4552E8E2D90E040E2A42EB12C95
:101AE000A822B9223AE3632E20E4C22ED12CC822C8
:101AF000D92258C09FB7F8949092E9008091E800ED
:101B000085FD02C020E004C08091F200252D281B35
:101B10009FBF222361F4FA9419F42FEF3FEF4DC0D9
:101B200061E070E080E090E00E9417083BC0822FE7
:101B300090E0C817D9070CF42C2FC21BD1094FB75E
:101B4000F8949092E900A114B10421F406C0109217
:101B5000F10021502223D9F719C0E7FC03C0F80196
:101B6000922F10C0C801322F06C0FC010196E491EB
:101B7000E093F10031503323C1F706C08191809387
:101B8000F10091509923D1F7020F111D8091E800C7
:101B900085FF05C0209729F4C114D10411F060928B
:101BA000E8004FBF209709F0A5CF5D9884E68093A9
:101BB0009902282D372DC9019C01C901DF91CF91D0
:101BC0001F910F91FF90EF90DF90CF90BF90AF905B
:101BD0009F908F907F906F905F9008951F920F92CB
:101BE0000FB60F9211242F933F934F935F936F93F0
:101BF0007F938F939F93AF93BF93EF93FF938091C6
:101C0000E1001092E100982F83FF0FC01092E900CD
:101C100081E08093EB001092EC0082E38093ED0072
:101C200010929B0288E08093F00092FF34C083E022
:101C30008093E9008091F200882319F08AE3809371
:101C4000E8008FB7F89492E09093E9009091F20049
:101C50008FBF992321F087EE92E00E942614809195
:101C60009902882351F080919902815080939902C2
:101C700080919902882309F45D9A80919A028823C1
:101C800051F080919A02815080939A0280919A0239
:101C9000882309F4289AFF91EF91BF91AF919F910A
:101CA0008F917F916F915F914F913F912F910F9005
:101CB0000FBE0F901F9018950F931F93DF93CF9334
:101CC0000F92CDB7DEB719828E010F5F1F4FC8018B
:101CD0000E944C14C8010E94E515898190E00F9084
:101CE000CF91DF911F910F9108951F920F920FB620
:101CF0000F921124EF92FF921F932F933F934F93D4
:101D00005F936F937F938F939F93AF93BF93EF9363
:101D1000FF93DF93CF93CDB7DEB76197DEBFCDBF23
:101D20001092E9008091E80083FF0FC1FE01319617
:101D30009E01275F3F4F03C08091F1008193E2171E
:101D4000F307D1F7289884E680939A0282EF809374
:101D5000E800998197FF05C08091E80080FFFCCFE3
:101D600003C08EEF8093E800292F30E0C901807610
:101D70009070892B09F0C2C08A81882329F41092BF
:101D8000F1001092F100D6C0813009F4D3C0833045
:101D900009F4D0C0853049F48091E80080FFFCCF81
:101DA0008B8180688093E300C5C0863009F07CC0D9
:101DB0001C81EF80F8841230C1F51092E900109276
:101DC0009D0210929C0210929F0210929E020E940D
:101DD0005C0E99E0FE013996DF01292F1D922A95AC
:101DE000E9F799871A8791E09E8790E8988B9AEF98
:101DF000998B20919C0230919D02275F3F4F3C8739
:101E00002B878D871092E90010929D0210929C0200
:101E1000F0929F02E0929E0280E0BF0149E050E014
:101E20000E94C40C0E945C0E85C01092E9001092C2
:101E30009D0210929C02F0929F02E0929E0212324A
:101E400041F482E290E00E94DD15892B09F476C00E
:101E500071C0113079F488E0E816F10419F481E0DA
:101E60008093A0028091A002882309F06BC0EAEE63
:101E7000F0E013C0133009F061C08B81882319F49E
:101E8000ECEAF0E00AC0823019F4E0EBF0E005C0C3
:101E9000813009F053C0E2EDF0E0449180E8BF01E9
:101EA00050E00E94C40C46C0873009F447C0883017
:101EB00021F481E08093F1003DC08930D9F5237091
:101EC0003070232BD9F5EFE0F1E091E031E026E32B
:101ED0009093E9003093EB0084918093EC00209381
:101EE000ED009F5F3196953099F78EE78093EA0079
:101EF0001092EA008B8180939B021CC08F81988591
:101F00001092E90010929D0210929C0290939F0201
:101F100080939E028D81882329F4CE0101960E9430
:101F2000581406C0823051F4CE0101960E94AE14BE
:101F3000882321F08EEF8093E80007C081E2809330
:101F4000EB0003C0ECEFF0E0A8CF6196DEBFCDBFA1
:101F5000CF91DF91FF91EF91BF91AF919F918F91C1
:101F60007F916F915F914F913F912F911F91FF90C2
:101F7000EF900F900FBE0F901F901895FC019B01E2
:101F8000848195816817790728F4608171816115D2
:101F9000710529F41092A20262EA72E002C0620F97
:101FA000731FCB010895FC0184819581681779071F
:101FB00048F40190F081E02D309721F0E60FF71FF3
:101FC0008081089580E00895FC01808191810097CF
:101FD00029F420E030E040E050E004C00E945A01C3
:101FE0009B01AC01B901CA010895CF93DF93FC01B5
:101FF000848195814817590768F4C081D18177277A
:1020000067FD7095CE01840F951F0E948D019C0184
:10201000009719F42FEF3FEF02C02C1B3D0BC901B5
:10202000DF91CF91089540E050E00E94F50F0895B0
:10203000DC01FB0114968D919C911597892B31F44D
:1020400061157105A9F090E0808108C00D90BC91E8
:10205000A02D6115710529F490E08C91882349F435
:1020600007C0CD010E9498019C0190E0232B09F448
:1020700091E0892F08950F931F93CF93DF93EC0185
:102080008B016F5F7F4F888199810E94BF120097FB
:1020900011F480E005C0998388831B830A8381E063
:1020A000DF91CF911F910F910895CF93DF93EC01B2
:1020B00088819981892B29F08A819B8186179707CE
:1020C00060F4CE010E943B10882341F08C819D81F9
:1020D000892B19F4E881F981108281E0DF91CF9199
:1020E0000895EF92FF920F931F93CF93DF93EC012C
:1020F0007B016C817D81E114F104C1F04115510532
:1021000099F08A01060F171FB8010E945510882305
:1021100069F0888199812C813D81820F931FB701DD
:102120000E94A1011D830C8381E001C080E0DF914A
:10213000CF911F910F91FF90EF900895DF93CF9370
:1021400000D0CDB7DEB769831A82BE016F5F7F4FC3
:1021500041E050E00E9471100F900F90CF91DF91FD
:102160000895CF93DF93EC0188819981009711F056
:102170000E942712198218821D821C821B821A82D9
:10218000DF91CF910895EF92FF920F931F93CF931A
:10219000DF93EC017B018A01BA010E94551088236C
:1021A00021F4CE010E94B11007C01D830C838881E9
:1021B0009981B7010E94A101CE01DF91CF911F91BA
:1021C0000F91FF90EF900895CF93DF93EC01198268
:1021D00018821B821A821D821C821E826115710563
:1021E00051F0DB010D900020E9F71197A61BB70B0A
:1021F000AD010E94C310DF91CF9108950F931F93FB
:10220000182F092F6115710559F0DB010D90002081
:10221000E9F71197A61BB70BAD010E94C31002C0CE
:102220000E94B110812F902F1F910F910895BF929E
:10223000CF92DF92EF92FF920F931F93CF93DF9392
:10224000082FB92E6B017A01E9012417350710F424
:10225000EA017901802F9B2D6EE571E00E94E41068
:10226000D60114968D919C9115978E159F05D0F0EF
:102270008C179D0708F4EC01D601ED91FC911197A4
:10228000EC0FFD1F108110826D917C916E0D7F1DF2
:10229000802F9B2D0E94FE10D601ED91FC91EC0F3A
:1022A000FD1F1083802F9B2DDF91CF911F910F91E8
:1022B000FF90EF90DF90CF90BF9008950F931F9302
:1022C0008C01FB01248135810E941711C8011F91E7
:1022D0000F910895CF93DF93EC01FB0186179707C9
:1022E00061F0608171816115710529F0448155812A
:1022F0000E94C31002C00E94B110CE01DF91CF91A5
:102300000895FC01118210821382128215821482B8
:1023100016820E946A110895FC01808191810E94B9
:1023200027120895FC0120E030E08081882311F419
:1023300021E030E0C9010895FC0181E08083089527
:102340000F931F93CF93DF93BC018230910510F45C
:1023500062E070E0E0910203F0910303A0E0B0E0DE
:1023600040E050E024C08081918186179707D0F02B
:102370008617970771F482819381109729F013963D
:102380009C938E9312972CC0909303038093020327
:1023900027C04115510519F08417950718F4EF016E
:1023A0008D01AC01DF01828193819C01F90130979D
:1023B000D1F641155105F9F0CA01861B970B8430FF
:1023C000910580F48A819B810115110521F0F801A6
:1023D0009383828304C09093030380930203FE01DE
:1023E00032962FC0FE01E80FF91F61937193029797
:1023F0009983888326C08DB79EB7885790402091D7
:102400005F013091600128173907C8F4AC01421B05
:10241000530B4617570798F0CB01029648175907F8
:1024200070F0820F931F9093600180935F019093EF
:10243000620180936101F9016193719302C0E0E050
:10244000F0E0CF01DF91CF911F910F910895CF93CD
:10245000DF939C01009709F48FC0EC0122971B8247
:102460001A8260910203709103036115710581F472
:1024700088819981820F931F20915F0130916001C3
:102480002817390739F5D0936001C0935F0174C0F4
:10249000DB0140E050E0AC17BD0708F1BB83AA8325
:1024A000FE0121913191E20FF31FAE17BF0779F4BE
:1024B0008D919C911197280F391F2E5F3F4F3983C3
:1024C000288312968D919C9113979B838A83411543
:1024D000510571F4D0930303C09302034DC01296CB
:1024E0008D919C911397AD01009711F0DC01D3CF32
:1024F000DA011396DC93CE931297FA012191319170
:10250000E20FF31FCE17DF0769F488819981280F46
:10251000391F2E5F3F4FFA01318320838A819B81CF
:1025200093838283E0E0F0E0DB0112968D919C9131
:102530001397009719F0BC01FD01F6CFAB014E5F78
:102540005F4FDB018D919C91840F951F20915F015E
:10255000309160012817390779F4309729F41092E7
:1025600003031092020302C01382128242505040B1
:102570005093600140935F01DF91CF9108956F9276
:102580007F928F929F92AF92BF92CF92DF92EF9203
:10259000FF920F931F93CF93DF938C01009729F441
:1025A000CB010E94A0118C01B4C08EEFE82E8FEFFA
:1025B000F82EE00EF11E5801A60EB71EAE14BF0491
:1025C00008F4A5C0D7014D915C91119746175707A4
:1025D000B8F04530510508F49CC0CA01049786172D
:1025E000970708F496C042505040461B570BF50120
:1025F000419351936D937C93CF010E94271289C020
:102600004B01841A950A3801640E751EA0910203CD
:10261000B0910303CC24DD24E0E0F0E047C0A61530
:10262000B705A9F5CD91DC911197CE0102968815D9
:10263000990568F1CE0188199909029612962C9194
:10264000129713963C91059758F0F5012283338336
:10265000C819D909D183C083D7016D937C9309C070
:102660004E5F5F4F4C0F5D1FF70151834083C901DF
:10267000FC01C114D10431F0D6011396FC93EE9302
:10268000129747C0F0930303E093020342C08D9179
:102690009C911197E817F90708F4FC016D01129657
:1026A0008C91129713969C919C01D901109709F077
:1026B000B6CF80915F019091600186159705B1F4C6
:1026C000E617F70798F48DB79EB788579040A8167D
:1026D000B906E8F4B0926001A0925F01B092620185
:1026E000A0926101F7017183608313C0CB010E9446
:1026F000A011EC01009759F0D7014D915C91B80100
:102700000E948401C8010E9427128E0102C000E0CD
:1027100010E0C801DF91CF911F910F91FF90EF90D2
:10272000DF90CF90BF90AF909F908F907F906F90F1
:1027300008952091E3023091E4028091E5029091A6
:10274000E602281B390B2F733070C90108952091C0
:10275000E3023091E4028091E5029091E6022817AD
:10276000390719F42FEF3FEF09C0E091E502F0912E
:10277000E602ED55FD4F8081282F30E0C901089514
:102780002091E3023091E4028091E5029091E6020B
:102790002817390719F42FEF3FEF13C0E091E50236
:1027A000F091E602ED55FD4F20818091E502909178
:1027B000E60201968F7390709093E6028093E50293
:1027C00030E0C90108951092EA021092E90288EE01
:1027D00093E0A0E0B0E08093EB029093EC02A09332
:1027E000ED02B093EE0281E891E09093E8028093CD
:1027F000E70208950F931F93DF93CF930F92CDB706
:10280000DEB78C01698380916A01882369F083E0D7
:10281000BE016F5F7F4F41E050E00E94490D1816E6
:10282000190614F49C0107C081E090E0F80193833D
:10283000828320E030E0C9010F90CF91DF911F919A
:102840000F91089583E00E94200D0895CF93DF93A8
:1028500012C082E00E94AB0C2FEF8F3F9207C9F0AD
:10286000E091E302F091E402ED55FD4F8083D093B7
:10287000E402C093E302C091E302D091E402219606
:10288000CF73D0708091E5029091E602C817D90706
:1028900001F7DF91CF910895FC0180818E5F8083E5
:1028A00080E863E171E042E450E00E94C40C0895C6
:1028B000FC0181819081913A59F4813209F04CC038
:1028C00080E063E671E047E050E00E94C40C42C043
:1028D000913209F041C0803239F483E691E067E03B
:1028E00070E00E94080D36C0823209F035C0828146
:1028F00080936A018091630190916401A0916501C8
:10290000B0916601805B9440A040B04019F5809181
:102910006A0180FD12C087E797E7909301088093D2
:1029200000082BE088E190E00FB6F894A89580931A
:1029300060000FBE209360000DC088E10FB6F894D0
:1029400080936000109260000FBEA895109201085D
:102950001092000881E0089580E00895FC019181C3
:102960008081813A31F4913089F080E0933089F4AC
:102970000DC0813269F49B3021F4828180936B0118
:1029800005C09A3029F4828180936C0181E008951A
:1029900080E00895EF92FF920F931F938C01E62E33
:1029A000DC01ED91FC910480F581E02D0995F82E74
:1029B000D801ED91FC910680F781E02DC8016E2DC4
:1029C00009958F2D90E01F910F91FF90EF90089542
:1029D0001092F5021092F9021092F80283E991E048
:1029E0009093F7028093F6020895EF92FF920F936F
:1029F0001F93DF93CF930F92CDB7DEB789838B01FF
:102A00007A0184E0BE016F5F7F4F41E050E00E9499
:102A1000490D84E4B801A7010E94490D0F90CF91A0
:102A2000DF911F910F91FF90EF90089582E048E0B1
:102A300050E00E94F5140895FC011682178210865A
:102A400011861286138614823496BF010E941615D1
:102A50000895DC01683810F0685829C0E62FF0E0CE
:102A600067FF13C0E058F04081E090E002C0880F9B
:102A7000991FEA95E2F7809514962C9114972823D4
:102A800014962C93149760E012C0ED52FE4F64919F
:102A9000662319F420E030E01DC067FF08C01496DB
:102AA0008C9114978D7F14968C9314976F77FD01FA
:102AB00090E0662321F08681861709F416829F5FD5
:102AC00031969630B1F7CD011496BD010E941615CE
:102AD00021E030E0C9010895CF93DF93DC0168382D
:102AE00010F0685825C0E62FF0E067FF12C0E058EC
:102AF000F04081E090E002C0880F991FEA95E2F76C
:102B000014962C911497282B14962C93149760E00C
:102B10000FC0ED52FE4F64916623D9F167FF08C0E4
:102B200014968C911497826014968C9314976F77F7
:102B300016968C9116978617A9F117968C91179770
:102B4000861781F118968C911897861759F1199666
:102B50008C911997861731F11A968C911A978617CE
:102B600009F11B968C911B978617E1F0ED01E0E0CF
:102B7000F0E09E2F8E81882321F4EA0FFB1F6683ED
:102B800006C09F5F31962196E630F10591F79630A9
:102B900049F481E090E013969C938E93129720E085
:102BA00030E007C0CD011496BD010E94161521E04A
:102BB00030E0C901DF91CF91089580E865E571E0CB
:102BC00045E650E00E94C40C0895FC0180818F5FAF
:102BD000808380E86AEB71E049E150E00E94C40C18
:102BE0000895629FD001739FF001829FE00DF11D57
:102BF000649FE00DF11D929FF00D839FF00D749F77
:102C0000F00D659FF00D9927729FB00DE11DF91F22
:102C1000639FB00DE11DF91FBD01CF01112408957F
:102C2000A1E21A2EAA1BBB1BFD010DC0AA1FBB1FD0
:102C3000EE1FFF1FA217B307E407F50720F0A21B42
:102C4000B30BE40BF50B661F771F881F991F1A94AF
:102C500069F760957095809590959B01AC01BD01D9
:102C6000CF010895EE0FFF1F0590F491E02D099418
:102C700012E0CEE5D2E004C0FE010E943416229696
:0A2C8000C036D107C9F7F894FFCF62
:102C8A000057726F6E67206672616D6521007370FE
:102C9A0065656400746F7271756500636F6D6D614F
:102CAA006E64206E6F7420617661696C61626C6516
:102CBA00003C73706565643E2C35362C39332C38EC
:102CCA0031323B0023333C73706565643E2C3536E4
:102CDA002C39333B003C73706565643E3B0000044D
:102CEA0003640000E1000000000000010100000090
:102CFA0000410AD90AD709080AE809310A0000007E
:102D0A0000FA13D90A9913C013A713221426140020
:0E2D1A00000000CA14D90A6C1529151C1500FA
:00000001FF
